:020000040800F2
:1000000000500020DDB10008D57F0008D77F000830
:1000100000000000000000000000000000000000E0
:10002000000000000000000000000000D97F000870
:100030000000000000000000DB7F0008DD7F0008FA
:100040002DB200082DB200082DB200082DB2000814
:100050002DB200082DB200082DB20008E57F00087F
:100060002DB200082DB200082DB200080180000852
:10007000118000082DB200082DB200082180000870
:100080002DB2000831800008418000080000000007
:10009000518000082DB20008618000082DB20008D0
:1000A000718000082DB200082DB200082DB20008A2
:1000B0002DB200082DB20008000000002DB200088B
:1000C00010B5064C2378002B07D1054B002B02D02E
:1000D000044800E000BF0123237010BDEC020020A3
:1000E000000000009CE20008044B10B5002B03D078
:1000F0000349044800E000BF10BDC04600000000F6
:10010000F00200209CE200080023C25C0133002AB8
:10011000FBD1581E7047000002B4714649084900DF
:10012000095C49008E4402BC7047C04603B4714666
:10013000490840004900095E49008E4403BC7047ED
:1001400003B47146490840004900095A49008E44E9
:1001500003BC7047002243088B4274D303098B42CF
:100160005FD3030A8B4244D3030B8B4228D3030C87
:100170008B420DD3FF22090212BA030C8B4202D329
:100180001212090265D0030B8B4219D300E0090A51
:10019000C30B8B4201D3CB03C01A5241830B8B425A
:1001A00001D38B03C01A5241430B8B4201D34B0343
:1001B000C01A5241030B8B4201D30B03C01A5241A8
:1001C000C30A8B4201D3CB02C01A5241830A8B422D
:1001D00001D38B02C01A5241430A8B4201D34B0216
:1001E000C01A5241030A8B4201D30B02C01A52417A
:1001F000CDD2C3098B4201D3CB01C01A524183092E
:100200008B4201D38B01C01A524143098B4201D367
:100210004B01C01A524103098B4201D30B01C01A92
:100220005241C3088B4201D3CB00C01A524183080C
:100230008B4201D38B00C01A524143088B4201D339
:100240004B00C01A5241411A00D201465241104699
:100250007047FFE701B5002000F0F0F802BDC0468E
:100260000029F7D076E7704703460B437FD400227E
:1002700043088B4274D303098B425FD3030A8B423A
:1002800044D3030B8B4228D3030C8B420DD3FF22A4
:10029000090212BA030C8B4202D31212090265D072
:1002A000030B8B4219D300E0090AC30B8B4201D325
:1002B000CB03C01A5241830B8B4201D38B03C01A6C
:1002C0005241430B8B4201D34B03C01A5241030BE3
:1002D0008B4201D30B03C01A5241C30A8B4201D394
:1002E000CB02C01A5241830A8B4201D38B02C01A3F
:1002F0005241430A8B4201D34B02C01A5241030AB6
:100300008B4201D30B02C01A5241CDD2C3098B429A
:1003100001D3CB01C01A524183098B4201D38B0117
:10032000C01A524143098B4201D34B01C01A5241BA
:1003300003098B4201D30B01C01A5241C3088B42FF
:1003400001D3CB00C01A524183088B4201D38B00EA
:10035000C01A524143088B4201D34B00C01A52418C
:10036000411A00D201465241104670475DE0CA0F63
:1003700000D04942031000D34042534000229C4623
:1003800003098B422DD3030A8B4212D3FC2289012D
:1003900012BA030A8B420CD3890192118B4208D303
:1003A000890192118B4204D389013AD0921100E065
:1003B0008909C3098B4201D3CB01C01A5241830979
:1003C0008B4201D38B01C01A524143098B4201D3A6
:1003D0004B01C01A524103098B4201D30B01C01AD1
:1003E0005241C3088B4201D3CB00C01A524183084B
:1003F0008B4201D38B00C01A5241D9D243088B42A1
:1004000001D34B00C01A5241411A00D20146634643
:1004100052415B10104601D34042002B00D54942A7
:10042000704763465B1000D3404201B5002000F0E6
:1004300005F802BD0029F8D016E770477047C0469E
:100440008446100062468C461900634600E0C046B0
:100450001FB501F021FF002801D40021C8421FBDB3
:1004600010B501F071FE4042013010BD10B501F031
:1004700013FF002801DB002010BD012010BDC04685
:1004800010B501F009FF002801DD002010BD01209A
:1004900010BDC04610B501F099FE002801DC002017
:1004A00010BD012010BDC04610B501F08FFE002820
:1004B00001DA002010BD012010BDC04684460800AE
:1004C0006146FFE71FB500F087FC002801D400213A
:1004D000C8421FBD10B500F013FC4042013010BDF2
:1004E00010B500F079FC002801DB002010BD0120D0
:1004F00010BDC04610B500F06FFC002801DD0020E3
:1005000010BD012010BDC04610B500F01FFC002832
:1005100001DC002010BD012010BDC04610B500F068
:1005200015FC002801DA002010BD012010BDC046D6
:10053000002B11D1002A0FD1002900D1002802D0B0
:100540000021C943080007B4024802A140180290E4
:1005500003BDC046E9FEFFFF03B4684601B502983B
:1005600000F04CF8019B9E4602B00CBC7047C046A0
:10057000F0B5CE46474680B5070099463B0C9C46F1
:1005800013041B0C1D000E0061460004140C000C2B
:1005900045434B4360436143C0182C0C20188C46E4
:1005A000834203D980235B029846C4444946794379
:1005B0007243030C63442D042D0CC9180004401928
:1005C0008918C0BCB946B046F0BDC0469E2110B5E2
:1005D000C905041CFFF7A2FF002803D1201C00F06E
:1005E00013FF10BD9E21201CC90500F05FFD00F027
:1005F0000BFF80231B069C466044F2E7F0B557468C
:100600004E464546DE46E0B504000D00924699464A
:1006100083B08B4230D82DD04946504602F0AEFD13
:1006200029000600200002F0A9FD331A9846203B5D
:100630009B4633D45A465346934042461F00534686
:1006400093401E00AF423AD8AF4200D178E05B46FB
:10065000A41BBD41002B00DA75E0002200230092AC
:10066000019301235A46934001930123424693404C
:10067000009328E08242CFD9002200230092019308
:100680000C9B002B01D01C605D600098019903B0A9
:10069000F0BCBB46B246A946A046F0BD4246202368
:1006A0009B1A5246DA40414613004A468A401700D8
:1006B00042461F43534693401E00AF42C4D9002216
:1006C0000023009201934346002BD9D0FB07720808
:1006D0001A4346467B080EE0AB4201D1A2420CD839
:1006E000A41A9D41012024196D410021013E2418C6
:1006F0004D41002E06D0AB42EED9013E24196D418A
:10070000002EF8D1009801995B4600196941002B31
:1007100024DB2B005A464446D3402A00E2401C000A
:100720005B461500002B2ADB26009E403300260086
:100730004746BE403200801A9941009001919FE7E0
:10074000A342BCD883E74246202300219B1A002203
:10075000009101920122DA40019286E7424620236D
:100760009B1A2A0046469A402300F340444613430E
:100770002A00E2401C005B461500002BD4DA4246FA
:100780002F002023260097409B1ADE403B00334376
:10079000CDE7C046F0B5C64643025B0A4E024500AF
:1007A0004F00DA00C40F9C46700A904600B52D0E2B
:1007B0003F0EC90FB6098C424BD0EA1B002A36DD2A
:1007C000002F61D0FF2D00D1ADE08023DB041E435C
:1007D0001B2A00DCD3E001204346181A430100D451
:1007E0008CE080018709380002F0AAFC05388740B8
:1007F000854200DCB6E02D1AB3483840430704D0E8
:100800000F230340042B00D00430430100D478E0D0
:100810006A1CFE2D65D08001430A9C46D2B2634615
:10082000D0051843E407204380BCB846F0BD002A39
:1008300035D07A1B002D00D0AFE04346002B00D10D
:10084000A7E0531E012A00D12FE1FF2A69D01A0028
:10085000AAE0E91B002970DD002F37D0FF2D62D000
:100860008023DB041E431B2900DCB0E00120404450
:10087000430143D50135FF2D33D00123934A034073
:10088000400810401843B9E7002E00D183E0511E04
:10089000012A00D1D8E0FF2A45D00A0098E7FE27B8
:1008A0006A1C174200D086E0002D00D0B7E0434616
:1008B000002B00D1F3E00022002EB0D0981B4301A2
:1008C00000D4FAE043460C00F01A97E7002E00D15E
:1008D000C8E04A1E012900D1AEE0FF2923D0110053
:1008E000C1E70023FF229C4699E7FE216A1C1142C2
:1008F00077D0FF2AF5D0150046447008430700D092
:100900007EE7C308FF2D0ED05B025B0A9C46EAB26D
:1009100085E7002E07D08022D203134203D0104275
:1009200001D10C000300002BDBD08020C003184352
:100930004002430A9C46FF2271E70029D5D07A1B6A
:10094000002D60D14346002B24D0531E012A73D0C2
:10095000FF2AE7D01A001B2A00DC85E001203D00B9
:10096000801985E720233A00451B38000135EA400D
:100970005D1BA840431E9841002510433EE72023FD
:1009800030009B1A31009840D140431E98410843E3
:1009900022E70C0003001500B4E7FF2FC1D080232D
:1009A0004046DB04184380461B2A51DD01200C0021
:1009B0003D00301A12E743469F1B7B012BD4002FCA
:1009C00000D010E70023002400229C4627E72023C4
:1009D00032003000CA40591A8840431E98411043E3
:1009E00045E7002D4AD14346002B63D00022002E5C
:1009F00000D114E730004044430100D47EE7324B7D
:100A0000013518407AE7FF2F8CD080234146DB0464
:100A1000194388469FE743460C00F71AE3E642462F
:100A2000002A00D075E7002E00D07AE78023DB0390
:100A300000249C46FF22F2E6300040440125430199
:100A400000D45BE7022518E743460125981BC5E65D
:100A5000202344464046D4409A1A9040431E984171
:100A60002043A4E70D004DE7202341464046D140F6
:100A70009A1A9040431E9841084370E74246002A64
:100A800000D14FE7002E00D14DE78022D203134260
:100A900000D148E7104200D045E7030043E7002EAD
:100AA00090D00C0084460022B9E643460C00F01AB0
:100AB000013593E684460022B1E6002800D01DE708
:100AC000002300249C46AAE6FFFFFFFBFFFFFF7DFB
:100AD000F0B54F464646D6464502C0B547000C1C09
:100AE0006D0A3F0EC60F002F00D170E0FF2F00D11E
:100AF00075E0EB008025ED041D43002399469A46DE
:100B00007F3F6002430A984663001B0EE40F002BF0
:100B10004ED0FF2B46D04246D0008022D204024362
:100B2000904600227F3B3100FF1A4B466140C9B21C
:100B300013430F2B00D9B5E06E489B00C3589F4666
:100B4000002398462600454692465346022B00D184
:100B500089E0032B00D19EE0012B18D03B007F33AE
:100B6000002B69DD6A0704D00F222A40042A00D036
:100B700004352A0103D5604B1D403B008033FE2B1A
:100B800000DD70E0AD016D0AD8B202E00E00002079
:100B90000025C0052843F6073043E0BCBA46B146FD
:100BA000A846F0BD4346002B3FD10222FF3F03E0A1
:100BB0004346002B2DD1012231004B466140C9B282
:100BC00013430F2B34D84D489B00C3589F46002D2C
:100BD00013D104239946033B00279A4691E7002D41
:100BE00005D108239946063BFF279A4689E70C233F
:100BF0009946093BFF279A4683E7280002F0A0FAAE
:100C00007627431F9D4000237F4299469A463F1A0C
:100C100077E7404602F094FA4246431F9A40762313
:100C20005B4290461B1A00227DE7FF2303227AE7EE
:100C30000E00FF200025ACE70120C01A1B28A6DC0F
:100C40009E372A00BD40C2406B1E9D4115436B0775
:100C500004D00F232B40042B00D004356B0144D566
:100C60000120002595E7FF20002592E7802500263A
:100C7000FF20ED038DE7002398468020C003054246
:100C800009D04346034206D1454605436D0226007E
:100C9000FF206D0A7DE78020C00305436D02FF2021
:100CA0006D0A76E742466B015001834219D21B223E
:100CB0000025013F01261C006D005B00002C01DBBC
:100CC000984201D81B1A3543013A002AF3D15A1E23
:100CD00093411D433B007F330E00002B00DD41E7B5
:100CE000AAE71A2201251B1AE4E7AD0100206D0ACC
:100CF0004FE7C04614E30008FFFFFFF754E3000886
:100D000070B5420045024E024C00C30F6D0A01202F
:100D1000120E760A240EC90FFF2A06D0FF2C03D02C
:100D2000A24201D1B54206D070BD002DFCD1FF2CEE
:100D3000FAD1002EF8D18B4206D00120002AF3D13F
:100D40002800431E9841EFE70020EDE770B5420010
:100D500045024E024C00C30F6D0A120E760A240E95
:100D6000C80FFF2A1BD0FF2C0ED0002A1BD1002C4D
:100D700001D1002E1CD0002D0CD083421CD00221AA
:100D8000581E0840013870BD002E22D1002AF4D12F
:100D9000002DF2D10028F6D101204042F3E7002DCA
:100DA00017D1FF2CF0D0002CE7D1002EE5D1E6E7DB
:100DB0000020002DE7D0E2E7A24205DCEADBB542E5
:100DC00002D8E7D30020DEE7434258414000013813
:100DD000D9E702204042D6E770B5420045024E02F4
:100DE0004C00C30F6D0A120E760A240EC80FFF2A9C
:100DF0000BD0FF2C0DD0002A1FD1002C16D1002EB5
:100E000014D10020002D10D009E0002D0CD1FF2CB2
:100E100013D1002E08D1002A08D0834212D002211B
:100E2000581E0840013800E0022070BD002DF4D1AA
:100E30000028FAD101204042F7E7002CEDD1002E26
:100E4000EBD1ECE7A24205DCF2DBB54202D8EFD3EE
:100E50000020EAE74342584140000138E5E7C04638
:100E6000F0B54F464646D64644024500C0B5640A32
:100E70000F1C2D0EC60F002D00D18DE0FF2D00D1CF
:100E800092E00023802099469A46E400C00404437F
:100E90007F3D7802430A98467B001B0EFF0F002B14
:100EA00000D170E0FF2B00D186E04246D0008022C6
:100EB0007F3BED180023D204024390469C4631004C
:100EC0004B467940681C0F2B1CD8764A9B00D358A0
:100ED0009F4639004446E2465346022B0FD0032B6F
:100EE00000D1D7E0012B37D100200024C0052043DA
:100EF000C9070843E0BCBA46B146A846F0BDFF208A
:100F00000024F3E7260C2404220C44462404240C79
:100F1000434627001B0C574374435A435E43121940
:100F20003B0C9B189C4203D9802252029446664493
:100F30003F041A043F0CD2199401671EBC411B0CDC
:100F4000920E9B1914439B011C431B0100D49BE090
:100F5000012362081C40144302007F32002A64DD32
:100F6000630704D00F232340042B00D00434230153
:100F700003D502004C4B80321C40FE2ABFDCA4018A
:100F8000640AD0B2B2E74346002B3DD14A46013352
:100F90001A4391469C4692E7002C29D10423994696
:100FA000033B00259A4674E7002C1BD10823994681
:100FB000063BFF259A466CE74346FF35002B0BD1D5
:100FC00002234A461A4391469C4678E7534631002D
:100FD000022B00D083E792E703234A461A43914647
:100FE0009C466CE70C239946093BFF259A4650E73F
:100FF000200002F0A5F87625431F9C4000236D4297
:1010000099469A462D1A44E7404602F099F842461E
:10101000431F9A4000232D1A90469C46763D4EE78A
:1010200080240021FF20E40360E701239B1A1B2B8F
:1010300000DD59E722009E30DA4084401300621E32
:1010400094411C43630704D00F232340042B00D09A
:10105000043463011AD50120002447E78020C0032F
:10106000044209D04346034206D144460443640285
:101070003900FF20640A39E78020C003044364027A
:101080003100FF20640A31E7280065E7A401002051
:10109000640A2BE78020C00304436402FF20640A33
:1010A00024E7C04694E30008FFFFFFF7F8B5CE46FB
:1010B000474643025B0A4E02DA009446720A9146A2
:1010C00045004A0080B52D0E1F00C40F120EC90F37
:1010D000B609FF2A5BD0012041408C4239D0A81AC2
:1010E00000285ADD002A6AD0FF2D00D1D9E08022E5
:1010F000D20416431B2800DCE9E001206346181ADD
:10110000430100D4B4E080018709380002F018F8E8
:1011100005388740854200DCCCE02D1AB5483840C0
:10112000430704D00F230340042B00D004304301B5
:1011300000D4A0E06A1CFE2D00D18DE08001470A9A
:10114000D2B2D0053843E4072043C0BCB946B0460C
:10115000F8BDA81A8046002845DD002A70D0FF2D72
:1011600000D19EE08023DB041E4343461B2B00DCA2
:10117000D2E00120604443017AD50135FF2D6BD0C8
:1011800001239D4A0340400810401843C8E7002E41
:1011900020D08C4223D02800FF38002839D0571B9C
:1011A000002D00D09DE06346002B00D1DBE07B1ECC
:1011B000012F00D10DE1FF2F71D01F0098E0002E0C
:1011C00000D1A7E0421E012800D1E6E0FF2868D048
:1011D00010008FE701204140A14200D07FE7FF20AF
:1011E00040428046A8444046002838D0511B002D7C
:1011F00000D1AEE0FF2A00D1DFE080236046DB04AF
:10120000184384461B2900DCD9E001201500801911
:10121000B1E7FE206A1C104271D1002D00D0A6E07B
:101220006346002B00D1D9E00022002E00D188E7D0
:10123000981B430100D4E1E063460C00F01A6FE70D
:10124000002E00D1B7E00200013A012800D19CE055
:10125000FF2826D0904688E7FF22002771E7FE206E
:101260006A1C104264D0FF2AF6D01500664470084C
:10127000430700D056E7C308FF2D12D05B025F0A78
:10128000EAB25EE76246002A00D196E0002E08D05E
:101290008022D203134204D04846104201D10C00F0
:1012A0004B46002BD8D08027FF031F437F02FF222D
:1012B0007F0A46E720233A00451B38000135EA4003
:1012C0005D1BA840431E98410025104328E72023BA
:1012D0001B1A32009E40C2403000431E984110430A
:1012E0000CE7FF2ADBD080236046DB0418438446EA
:1012F0001B2F56DD01200C001500301A00E7634655
:101300009F1B7B013DD4002F00D0FEE6002400226D
:10131000002716E70500AFE7320043464146DA40B2
:1013200020235B1A9E403000431E9841104321E762
:10133000002DA7D16346002B59D00022002E00D1EA
:10134000FFE630006044430192D52A4B0135184036
:101350008EE76346002B47D04B1E012915D0FF298D
:101360002BD019004EE70C004B463D0084E7624647
:10137000002A8BD1002E92D180270024FF22FF0368
:10138000DFE663460C00F71ABFE630006044012533
:10139000430100D46CE70225F2E663460125981B61
:1013A000AEE6202364466046FC40DF1BB840431E87
:1013B000984120439FE705005EE74B4671E72023F5
:1013C00065466046CD40591A8840431E98412843DF
:1013D0001CE763460C000125F01A91E6002E95D01B
:1013E0000C004F460022ACE64B460D0044E74F464A
:1013F0000022A6E6FFFFFFFBFFFFFF7D002800D0D5
:1014000036E7002400279CE641024200C30F490A48
:101410000020120E7E2A03DD9D2A02DD094A98185B
:101420007047802000040143952A07DC9620821A29
:10143000D1404842002BF3D10800F1E7963A9140A1
:10144000F7E7C046FFFFFF7FF8B5002813D0C317AA
:10145000C6185E40C40F300001F072FE9E230500E6
:101460001B1A962B0FDC082801DD083DAE407602E2
:10147000760AD8B202E0002400200026C0053043DE
:10148000E4072043F8BD992B0CDD05223100121A28
:10149000D1400A00010030001B318840411E8841C4
:1014A00002431600052D12DC31000D4F3940720742
:1014B00009D00F203040042805D004314A0102D55C
:1014C0009F2339405B1B89014E0AD8B2D6E76A1FB9
:1014D00096403100024F39407207F4D0E9E7C04628
:1014E000FFFFFFFBF0B54F464646D6460D00040011
:1014F000C0B51F0011002803620F400A10437A0094
:10150000520DE3003C039146640AFA0F4F0F6E0040
:1015100027439246B846760DED0FC900954200D19B
:1015200099E04C46341BA446002C00DC7CE04A4683
:10153000002A00D1B8E0C54A964200D11CE18022C1
:101540003C0012041443A0466246382A00DD61E1E3
:101550001F2A00DDCCE164462022121B4446944041
:101560000F00A14664469140E7404C464A1E914117
:101570003C43424621436446E240801A5C1AA3423F
:101580009B415F42C71B3B0200D4D0E07F027F0A31
:10159000002F00D1FFE0380001F0D2FD0100083932
:1015A000202322005B1A8F40DA408C401743B1425F
:1015B00000DAFFE0891B4B1C1F2B00DDA8E0202276
:1015C0003900D21A200094409140D840621E9441C4
:1015D000DF40002601430C43630709D00F2323405B
:1015E000042B05D0231DA342A44164423F191C00D3
:1015F0003B0200D49EE0954B01369E4200D1B7E0FD
:10160000934AE40817407B0771057F0223433F0B91
:101610004A0D12053A43ED072A4318001100E0BCB9
:10162000BA46B146A846F0BD002C4BD04C46A41B90
:10163000A446002E00D023E104001C4300D1AFE1FA
:101640006246541E012A00D115E2804DAC4500D1FE
:10165000C8E1A4461BE14A46B21A9446002A00DCBF
:10166000ACE04A46002A43D0784A964200D1AFE126
:1016700080223C0012041443A0466246382A67DCEC
:101680001F2A00DC5FE14746203AD7406246202A05
:1016900005D064464022121B4446944021434A1E12
:1016A00091410C003C4357E03A000A4300D105E168
:1016B0002200013A012C00D182E1644CA4455BD0A8
:1016C000944641E7634C771C274200D0C4E00400F5
:1016D0001C43002E00D069E1002C00D1BFE144463C
:1016E0000C4300D0D0E14207DB081343C00829E0D7
:1016F0003A000A4300D170E162466446013A012C87
:1017000000D1E0E0514CA44500D161E19446B4E73A
:101710003A001F39CA401100202B03D04022D31AAF
:101720009F403C43631E9C41002700260C436307F7
:1017300000D053E7B446E4087B072343F808434A44
:1017400094451DD06246070352053F0B520D60E7DA
:1017500044460C43621E9441E4189C429B415F4204
:101760003F183B02E3D5394B01369E4200D0B5E02D
:101770003200002700234CE74207DB081343C00870
:101780001A00024300D1E1E180273F0307433F03F2
:101790002E4A3F0B3DE7200001F0D2FC010018313A
:1017A0001F2900DCFCE60838844027000024B142F1
:1017B00000DBFFE6264A761A17400DE7002A2FD0F5
:1017C0004A46921B9446002E00D1ADE01F4A914537
:1017D00000D10FE18022120410436246382A00DD56
:1017E0000FE11F2A00DD80E1644620221E00121B4B
:1017F0006746040093409440FE405A1E9341F840CF
:1018000034431C43804464188C42BF417F424E469F
:101810004744A6E742460A4311004A1E9141ADE6FD
:101820000C4C721C224200D0A1E002001A43002E90
:1018300000D0FAE0002A00D145E13A000A4300D086
:1018400046E14207DB081343C0087BE7FF070000BF
:10185000FFFF7FFFFE07000047465C1AC21BA34242
:10186000BF417F42B94617004A46BF1A3A0200D527
:101870008DE023003B4300D08AE60020002561E78D
:10188000B44CA14500D1ADE080242404204364463B
:10189000382C3DDC62461F2C00DDB7E020251E0001
:1018A0002D1B0400AB40AC40D640D04042465D1EEC
:1018B000AB413443121A904623432CE04207DB0825
:1018C0001343C0083BE75C189C429B4140445B4289
:1018D000C71801263B0200D429E702269E4A630866
:1018E0001740012214401C43FB071C437F0873E68A
:1018F0004446203AD4406246202A05D0674640221A
:10190000D21B4746974039434A1E9141214335E651
:101910000343581E8341CC1AA142BF4143467F4234
:1019200055464E46DF1B2EE602001A4300D1BDE0AD
:1019300062466446013A012C00D1E5E0854CA4459D
:1019400058D0944649E764462022121B44469440EE
:101950000F00A14664469140E7404C464A1E914123
:101960003C4342460C436146CA408018F4E6794C39
:10197000A24200D1FDE6591899429B4140445F4282
:10198000C719FC07490816000C437F08CFE6CC1A9C
:10199000A142BF4143467F42181A5546C71BF7E58F
:1019A000C9087B0755460B43F808C8E6002C00D051
:1019B00081E043460B4315D1802000250003E3E678
:1019C0005C1AA3429B41C71B5B420126FF1ADAE562
:1019D0004207DB081343C008D2E64207DB08134383
:1019E000C008ACE643464246C9085B0755460B4370
:1019F000D008C5E6434642465B07C9080B43D008FA
:101A0000BEE603431C00631E9C41FCE60200203C32
:101A1000E24014006246202A03D04025AD1AA840B7
:101A20000343581E8341234375E7002AE2D03A005E
:101A30000A43CDD04207DB0813438022C0081203BB
:101A4000104206D0FC08144203D12000CB087A07CC
:101A500013435A0FDB005207DB08134390E643465B
:101A60000B4300D109E743464246C9085B07554688
:101A70000B43D00866E6CC1AA14289413F1A49427D
:101A8000554601267F1A7EE542465C1A871AA34214
:101A900092415242BF1A3A023DD5CC1AA142894125
:101AA000434649421F1A55467F1A95E57B07C908E8
:101AB0000B43F80843E64446DB080C4330D14207A9
:101AC0001343C0085CE67B07C9080B43F80839E6F6
:101AD0005C189C429B4140445B42C7183B0200D4C7
:101AE00025E61D4B01261F4021E60400203AD44084
:101AF0006246202A04D040226646921B904003434F
:101B00005A1E93411C437EE65C188C428941404436
:101B100049424718DDE623003B4300D1ADE606E627
:101B2000440723438024C0082403204208D04246AF
:101B3000D608264204D155463000CB0851070B4346
:101B40005A0FDB00DB085207134319E60023014A52
:101B50001F005EE5FF070000FFFF7FFFF0B557465F
:101B60004E464546DE46E0B5814605000C0348007A
:101B700092461F0085B0240B400DCE0F002800D1E7
:101B800056E1D44B984200D172E16B0FE4001C4344
:101B900080231B0423439846CF4BED009B46002334
:101BA0009946834400933C037B005046240B5B0D15
:101BB000FF0F002B00D11FE1C64A934200D162E122
:101BC000C549420F8C46E4005946144380226344C1
:101BD0001204CB1A14439B46C200002033007B4002
:101BE0009A464B460F2B27D8BC499B00CB589F46A3
:101BF000B246009B022B16D0032B00D18EE2012BA4
:101C000000D0D9E000230024002552461B052343C1
:101C1000D20713432800190005B0F0BCBB46B246FA
:101C2000A946A046F0BD00240025AA4BEDE7BA4620
:101C3000A04615000090DCE7444500D2C7E100D182
:101C4000C2E101235B429C462E0040460025E3444E
:101C50002302140E1C431B0C994623041F0C120272
:101C6000494600920197FEF7FBFA02007A430B0403
:101C7000310C804619438A4207D901235B429C46B6
:101C80000919E0448C4200D807E2881A4946FEF759
:101C9000E7FA09048C4631046646019A090C42436E
:101CA000030031438A4204D90919013B8C4200D810
:101CB000EDE1881A424612041A4390464146009BC1
:101CC0000E041B0C1F000293009B360C1B04190C06
:101CD0000B007343120C7E43039151437A431F0C54
:101CE000BC4676186644B14203D9802149028C462D
:101CF0006244310C8A1831041E04360C8E1990424D
:101D000002D312D1B54210D24346591E009B9C46C5
:101D100065441F009D429B415B421B19C0188442D1
:101D200000D2A0E100D19BE18846AE1BB542AD4197
:101D3000801A6D42401B844200D1D5E14946FEF72E
:101D40008FFA019A0B044243310C050019438A4271
:101D500000D96CE1881A4946FEF782FA019A3604E6
:101D600042430904360C03000E43B24200D953E14A
:101D70000398B61A02002D041D43029F2B041B0C6E
:101D80005A437B439C46290C4843130C84446344C8
:101D90007943984203D98020400284466144180C5C
:101DA00012041B04120C41189B188E4200D2FFE053
:101DB00000D1FAE001231D43494A5A44002A00DCBD
:101DC000AAE06B0700D03DE1ED084346DB0106D5F4
:101DD0004246444B1A4090468022D2005A44424B1D
:101DE0009A4200DD1FE743465B071D434346520509
:101DF0005C02240B530D08E75246224300D17BE0DE
:101E0000002C00D1FAE0200001F09AF902000B3A10
:101E10001D2301009B1A52460839DA408C401443B6
:101E200052468A40314B58449B4683440020D5E6B5
:101E30004B462343984644D0002C00D1CEE02000EE
:101E400001F07EF9010002000B391D235B1A49469F
:101E50001000D940083884400B004D462343984673
:101E600085402348831A9B460023994600939AE6AF
:101E70004B46234398461DD108239946063B00252F
:101E8000834600938FE65246224309D102234946F6
:101E90001943184B89469C4600240220E3449DE6E2
:101EA00003234A461A43134B91469C46524603204D
:101EB000E34493E60C239946093BA04683460093EE
:101EC00071E60423994600239B46013300250093C5
:101ED00069E6C046FF07000001FCFFFFD4E30008ED
:101EE000FF030000FFFFFFFEFE070000F3030000FA
:101EF0000DFCFFFF01F8FFFF494601231943894606
:101F0000002401206AE6002380249A4600258A4B9B
:101F100024037AE601256D4201239B1A382B00DD4C
:101F200070E61F2B00DCBFE01F2149428A1A4146A0
:101F3000D1400A00202B04D04146804B5B4499409D
:101F40000D436B1E9D4107232A431D0000241540AD
:101F5000134200D1D4E00F2100231140042900D105
:101F6000CBE0111D9142924152429B180A00190286
:101F700000D4C2E001230024002546E68023414628
:101F80001B03194208D01C4206D11C432403BA4645
:101F90001500694B240B38E68024434624031C4378
:101FA0002403B246644B240B2FE6002B00D103E739
:101FB000A619681EA64200D28DE08E4200D2A3E090
:101FC00000D1B3E00500F5E6AA4200D939E6434660
:101FD000DE0758086B081E43ED0739E6484601F056
:101FE000AFF801000200153120321C2900DC2CE77B
:101FF0004B46083883400025984632E701F0A0F8A8
:1020000003001A00153220301C2A00DC00E7544679
:10201000083B00229C4005E73619013BB44200D939
:10202000A6E6B24200D8A3E6831E3619A0E6091937
:10203000013D8C4200D98DE68A4200D88AE6851E91
:10204000091987E60F232B40042B00D1BCE605239A
:102050005B42AB429B4104355B42ED089844B4E6D9
:10206000AF4200D960E6824204D800D05CE6AE42BE
:1020700000D859E602235B429C46009BE0449C4604
:1020800065449D429B415B421B19C0184DE68A4244
:1020900000D80EE6831E09190BE68A4200D8F4E543
:1020A000831E98460919F0E52549280059448D40BA
:1020B00042468A40691E8D414146D840D94002437C
:1020C0002A430B00510700D151E70F211140042989
:1020D00000D046E74BE705008E4200D06AE6009A42
:1020E000934200D066E667E6164A5A44002A00DCAE
:1020F00010E701230025984467E65D075B021C0B8F
:10210000D2080023154380E50098023D4200824238
:10211000BF417F423C1936190092DDE780244346D7
:1021200024031C432403044B240B6EE5009A9A42BB
:10213000EAD30500D3E7C046FF0700003E040000D5
:102140001E040000FF030000F0B54E464546DE4683
:1021500057469046E0B517001A03120B0500844657
:1021600019480E034C0091465A00DB0F9B46360B74
:10217000640DC90F520D844219D0824210D0012043
:1021800094420ED14E450CD10120C44509D1594588
:1021900017D0002C05D130002843431E984100E0A1
:1021A0000120F0BCBB46B246A946A046F0BD3300B4
:1021B00001202B43F5D1A242F3D14B463B43F0D152
:1021C000E2E70020EDE7C046FF070000F0B5474614
:1021D000CE460400180016001B031B0B2D4D4A00B1
:1021E000994680B543000F03A446B0463F0B520DFD
:1021F000C90F5B0DC00FAA4221D0AB4213D0002AF9
:1022000022D13C43002B02D14D462E4322D0002C3C
:1022100010D0814222D00220013908400138C0BCD0
:10222000B946B046F0BD4D462E4329D1002AF0D123
:102230003C43EED10028F2D101204042EFE73D00BF
:1022400025431DD19342EED0002BE2D14C462643CC
:10225000DFD1E0E70020002CE1D0DCE79A420ADC85
:10226000E8DB4F45D7D80ED000204F45D7D2002904
:10227000E2D00800D3E74342584140000138CEE79E
:1022800002204042CBE7C445C5D80020C445C6D291
:10229000EDE7C046FF070000F0B54746CE46040014
:1022A000180016001B031B0B2C4D4A00994680B5E5
:1022B00043000F03A446B0463F0B520DC90F5B0D00
:1022C000C00FAA420DD0AB4210D0002A27D13C4308
:1022D000002B11D14D462E430ED10020002C15D0DD
:1022E0000EE03D00254310D1934218D14D462E43B8
:1022F0000BD1002A02D13C43002C0BD0814214D0D8
:10230000022001390840013800E00220C0BCB94673
:10231000B046F0BD0028F9D101204042F6E7002B7D
:10232000ECD14C462643E9D1EAE79A4204DD434228
:10233000584140000138E9E79A42EBDB4F45DFD8CE
:1023400006D000204F45E1D20029E5D00800DDE7A6
:10235000C445D5D80020C445D8D2F5E7FF07000012
:10236000F0B557464E464546DE46E0B598460C0366
:102370004B000600924687B0240B5B0DCF0F002B5D
:1023800000D15CE1D94A934200D175E1420FE400EB
:102390001443802212041443D54AC5009446634472
:1023A0000093002399469B46434642461E03D20FA4
:1023B0005B0050469046360B5B0D00D120E1CB4AC6
:1023C000934200D162E1CA49420F8C4600996344AE
:1023D000F6008C46164380229C4412046346164342
:1023E000C200002000930099434601318C464946C3
:1023F0007B4001930F2926D8BE4B890059588F4640
:10240000434601933400150083465B46022B16D0E9
:10241000032B00D103E2012B00D0CDE000220024E9
:102420000025019B12052243DB071A4328001100F7
:1024300007B0F0BCBB46B246A946A046F0BD00249A
:102440000025AA4AEDE7280C2D042D0C2B00110CB9
:102450001204120C5343984613002F00434399462D
:102460004F434F44BB4647460B003F0CBA464343DD
:10247000DA440293D14504D980277F02B9464B4400
:10248000029353461B0C9B4653461F0443461B04B2
:102490001B0C98463B0043440493330C3604360C23
:1024A0009846330043439946434643432F009A4698
:1024B000434677435D43380C4D444519A94503D93C
:1024C00080235B029946CA443F04280C3F0C2D042C
:1024D000ED19270C2404240C0300200050437A43F8
:1024E00091463A0053440593030C9A464A4361438C
:1024F00049445144AB44894503D980235B02994642
:102500004A4400040B0C000C0904091820009946E9
:10251000434670435C437E435F43030C9846A419D3
:1025200044444A440397A64204D980235B02984658
:10253000474403972304029E9A46059B5E449846AF
:10254000AE42AD4176188E4289410004000C5044E1
:1025500040446D424719B846934649428946C344B0
:10256000D94498428041A845AD419345924189455F
:1025700089416D4240422843240C524249420A4359
:10258000039B00198018C7184B46DC0D049B75028D
:102590001D436A1E95414B46F60D7F0235435A0294
:1025A0003C431543FB0100D41CE101216A080D40A6
:1025B0001543E207154364084F496144002900DCD4
:1025C000B0E06B0709D00F222A40042A05D02A1D4B
:1025D000AA42AD416D4264191500E30104D5802182
:1025E000464AC90014406144454A914200DD26E74D
:1025F0006207ED08640249051543240B4A0D10E7F4
:102600005246324300D17FE0002E00D1DCE03000A2
:1026100000F096FD02000B3A1D2301009B1A524662
:102620000839DA408E40164352468A40009B3549AD
:10263000181A03008C46634400200093D3E625005B
:1026400005434AD0002C00D1B0E0200000F078FD16
:10265000010002000B391D2310005B1A3100350008
:1026600008388440D94085400C432648831A00939B
:10267000002399469B4697E60500254326D108226C
:1026800000930223002491469B468DE65246009B10
:10269000324310D1154900268C46634449460093C5
:1026A00002231943894602209DE65B460197022BCF
:1026B00000D0ADE6C3E60D4A0320944663444A4683
:1026C000009303231A43914652468CE60C22009352
:1026D0000323050091469B4666E6042399460023A2
:1026E0000093013300249B465EE6C046FF070000CE
:1026F00001FCFFFF14E40008FF030000FFFFFFFEE2
:10270000FE0700000DFCFFFF4946012319438946DF
:102710000026012067E6002380240025434A019318
:1027200024037EE60120401A382800DD76E61F28C3
:102730005BDD1F2223005242511ACB401900202892
:1027400003D03B4A6244944025436A1E95412A00C7
:102750000A4307210D000024154011425BD00F21D0
:1027600000241140042953D0111D9142924152423C
:10277000A4180A0023024BD501220024002550E6AC
:1027800080231B031C4209D01E4207D133431C0384
:1027900043461500240B254A019342E6802212038A
:1027A00014432403214A240B01973AE600F0C8FCA5
:1027B00001000200153120321C2900DC4BE73400F7
:1027C00008380025844050E700F0BAFC03001A00E6
:1027D000153220301C2A00DC1EE75646083B00223A
:1027E0009E4023E7009B9C46E6E612492200614496
:1027F0002E008D408A40C640691E8D4132432A43D7
:10280000C4405307B6D00F2111400429ACD1B1E721
:1028100065076402240BD2081543002201E68022DA
:10282000120314432403014A240BFAE5FF070000B6
:102830003E0400001E040000F8B557464E464546CB
:10284000DE46E0B51E0017004A000B03520D5B0A7E
:102850009046420F1A43CD0FCD4C3103C30094462E
:1028600070007A0F490AFF009A46B946400DF60FEC
:102870001143A04200D1B1E001225640B346B54217
:1028800000D188E04246121A002A00DCAEE000289F
:1028900000D1C1E0BE48804500D151E18020000454
:1028A0000143382A00DD7BE11F2A00DDEEE1202014
:1028B0003E00801A0C00D640D140874062468440DA
:1028C000521A781E8741944634432743DC1BA342A7
:1028D0009B4162465B42D31A99464B461B0200D489
:1028E00018E14B465802430A99464B46002B00D14B
:1028F00037E1484600F024FC01000839202322007B
:1029000048465B1ADA4088408C404346104388456D
:1029100000DD36E1C91A4B1C1F2B00DDEAE0202246
:102920002600D21A01009440DE40D8400023914096
:10293000621E94418146984631430C43630709D097
:102940000F232340042B05D0231DA342A44164423E
:10295000A1441C004B461B0200D4DEE041468C4BD8
:102960000131994200D1E7E04B468A48E408034030
:10297000180049055B07400223434A0D040B12056A
:10298000ED0722432A4318001100F0BCBB46B246B3
:10299000A946A046F8BD4246121A002A52DD002878
:1029A00000D19CE0A04500D1CAE080200004014392
:1029B000382A00DD49E11F2A00DC97E110000E00F3
:1029C0002038C640202A04D04020821A91400F436C
:1029D000B9464C46621E944134433AE10A003A43F8
:1029E00028D0B346B5422BD06B4A4244002A5DD072
:1029F00042464446821A002C00D0F5E065461D434D
:102A000000D19CE1551E012A00D1FBE1604CA2429D
:102A100000D1BDE12A00F0E00800384300D1C3E056
:102A2000501E012A00D1A8E1594CA24200D187E0F2
:102A3000020036E701225640B346B54200D021E7F6
:102A4000554A4244002A00D1B5E042464446821A23
:102A5000002C00D138E14E4EB04200D1DEE180269C
:102A6000644636043443A446382A00DD96E11F2A22
:102A700000DD24E22026B41AA24664465646B4403D
:102A8000A1461C004E46D440264334005646B3406F
:102A90005E1EB3411C436346D340C918E419BC42CF
:102AA000BF417F42B94680468944D8E040463B4C0E
:102AB0000130204200D0B4E04046002800D044E17C
:102AC0006046184300D190E10800384300D0AAE1E5
:102AD0006146DB0849070B436146CC0827E0080044
:102AE000384361D0501E012A00D139E1A24227D0DB
:102AF00002005DE702001F39CA401100202B03D0FD
:102B00004022D31A98400443631E9C4100239946F7
:102B100098460C43630700D012E74B464A46E40848
:102B20005B072343D408424619498A420ED0240346
:102B30005205240B520D22E70A00002400231EE751
:102B4000DB086246520713436246D4081A00224348
:102B500000D1FCE180221203144324030C4A240B0D
:102B60000DE7200000F0ECFA010018311F2900DC0D
:102B7000C4E608388440434620000024884500DC31
:102B8000C8E6044A5B1A104098468146D6E6C0461D
:102B9000FF070000FFFF7FFF01F8FFFFFE070000B7
:102BA0000F437A1E974191E66146DB0849070B43C4
:102BB0006146CC08B8E74046D34C0130204200D0F3
:102BC000A2E04046002800D001E16046184300D151
:102BD0005EE10800384300D05FE16146DB08490749
:102BE0000B436146CC08A2E7C84DA84200D1CFE014
:102BF000802564462D042C43A446382A56DC1F2A1F
:102C000000DDD1E020251E00AD1A6446AB40AC408B
:102C1000D6405D1EAB41344323436446D440091B78
:102C200049E06046DC1B461AA3428041404281468F
:102C300030004E46801B8146000276D44B4623432B
:102C400000D052E60024002571E739430C00621ED3
:102C50009441E4189C429B415B42634499464B4635
:102C60001B0200D456E701239C46A84BE04498453C
:102C700038D04B46A6480122034018006308144090
:102C80001C43C3071C434308994657E610000E0037
:102C90002038C640202A04D04020821A91400F4399
:102CA000B9464F467A1E974137430FE662461A43AC
:102CB00013005A1E9341FC1AA742BF417F42CB1B0F
:102CC00099465D46804608E666461E4300D1BEE052
:102CD000561E012A00D109E18C4CA24200D119E113
:102CE0003200C1E642460024002348E620200C00C2
:102CF000801A3E0087408440D640781E8741D140EC
:102D000034433C438C44A4E7804A904200D1E9E03C
:102D1000DF199F429B4161445B42C918CC077F0881
:102D20004B08994680463C43F4E6FC1AA742BF4153
:102D300063467F42C91ACB1B99465D46D5E5FF081D
:102D40004B075D463B43CC08EEE662461A4300D093
:102D500082E00B003B431BD1802400252403F9E6CD
:102D6000DC199C429B41614489465B4299444B4635
:102D70001B0244D401239846CCE6DC1B6246A342E6
:102D80009B41511A5B42CB1A994601239846A4E510
:102D9000FF084B075D463B43CC08D7E662461A4323
:102DA0001400631E9C4179E615006446203DEC400A
:102DB000A046202A05D040256446AA1A9440234301
:102DC0009A465446631E9C414346234373E762463A
:102DD0001A4323D00A003A4300D0A0E06246DB0841
:102DE000520713436246D408B0E60B003B4300D1C0
:102DF00028E7FF084B075D463B43CC0897E60223D4
:102E0000984636E7FC1AA742BF4163467F42C91A7B
:102E1000CB1B994601235D4698465EE54B07FF08AC
:102E20003B43CC0892E6DC1B6046A342B641401A05
:102E30007642801B8146000260D5FC1AA742BF4142
:102E400063467F42C91ACB1B99465D4676E5FF086B
:102E50004B073B43CC0867E60A00DB083A4300D146
:102E60006FE66246520713436246D408802212037B
:102E7000144207D0C808104204D15D460400FB0884
:102E800049070B435A0FDB00DB08520713435DE68B
:102E90004B07FF083B43CC0849E6DC199C429B41A9
:102EA000614489465B4299444B461B0200D431E69B
:102EB0004A46174B1A400123914698462AE61600C7
:102EC0006446203EF440A046202A05D040266446B1
:102ED000B21A944023439A465446631E9C4143468B
:102EE0001C43DBE502000024002348E5DC19BC425A
:102EF000BF41614489467F42B94438E74B4623438A
:102F000000D19FE606E6C046FE070000FF0700006E
:102F1000FFFF7FFFFF084B073B43CC0816E66246E6
:102F2000DB08520713436246D4088022120314427E
:102F300007D0C808104204D15D460400FB084907C9
:102F40000B435A0FDB005207DB081343FEE5002357
:102F5000014A1C0013E5C046FF07000070B50500DC
:102F60000C481C0316005B000A034900120B490DB4
:102F7000240B5B0D814208D0064A0020934203D106
:102F800020003043431E984170BD01202A43FBD1ED
:102F9000F2E7C046FF0700000A0030B5134C5300AB
:102FA00009030500090B00205B0DD20FA34204DDCD
:102FB0000F48834202DD0F4BD01830BD8020400304
:102FC00001430D48C01A1F2808DD0C48C31AD94018
:102FD0000B005842002AF0D11800EEE7084CC5401B
:102FE000A446634499400B002B43F2E7FE03000024
:102FF0001D040000FFFFFF7F3304000013040000E6
:10300000EDFBFFFF70B5002816D0C317C5185D4053
:10301000C40F280000F094F8114A121A0A2816DC8E
:1030200003002E0015339E400B23181AC54052058D
:103030002D032D0B530D03E0002400230025002653
:103040001B052B43E40723433000190070BD0B38E8
:10305000854052052D0300262D0B530DF0E7C04689
:103060001E04000010B5041E10D000F069F80F4BCC
:103070001B1A0A2811DC0B222100121AD14015302C
:103080000A035B058440120B5B0D01E00023002264
:103090001B0513432000190010BD22000B3882408D
:1030A0005B0512030024120B5B0DF1E71E04000008
:1030B00070B543004602C40FFE201B0E591C750A52
:1030C00008420CD0E022920094466D07360B634410
:1030D0001B053343E40723432800190070BD002B70
:1030E00014D1002D1BD0280000F02AF80A281CDC7F
:1030F0000B232E001B1ADE40030015339D400E4AA1
:103100003603121A5205360B530DE1E7002D09D094
:103110008022360B1203094B6D071643D8E70023B4
:103120000026D5E70026054BD2E703000B3B9D4068
:103130002E000025E3E7C04689030000FF070000DA
:103140001C2101231B04984201D3000C10391B0AD7
:10315000984201D3000A08391B09984201D300099B
:10316000043902A2105C40187047C04604030202F2
:1031700001010101000000000000000010B500295D
:1031800003D1FFF7DDFF203002E00800FFF7D8FF92
:1031900010BDC046F0B504243A4B05005E783A4BAA
:1031A0001C57002E15D18922D87A92005043374AF5
:1031B00012188620800012181278944249DB187B7E
:1031C000002803D02E705B7B0B702EE02870DB7A1A
:1031D000FAE7012E2AD12D4E002C0ADD8922D87A59
:1031E000920042438620B21880001218127894424E
:1031F00016DD8922187B9200002808D05C7B624390
:103200008624B218A400121912782A70DBE7DC7A3F
:1032100062438624B218A400121912782A70D6E7E5
:10322000013C00202C70DB7A0B70F0BD987A0028EE
:1032300011D08920DE7A8000464314488019862602
:10324000B60080190678B44203DB002010702E709F
:10325000BDE70134E5E7002C0BDD8926DF7AB600F7
:1032600077430A4EF6198627BF00F6193678B4421E
:1032700005DD0023012010702B70034BA3E7013CF8
:103280002C70A4E754250020000000201403002027
:1032900001000020054B9A68824206DD013A9A60DF
:1032A000034A1970126801305A6070470803002001
:1032B000803A002001000020054B9A68824206DA1D
:1032C00001329A60034A1970126801305A607047DF
:1032D00008030020803A0020892330B50C4A9B0067
:1032E000D47A41185C430B4B1B190124C133FF33C3
:1032F0001D7803785B190B2B06DDD318F1330130F1
:103300001C708142F5D130BDD318FD33F7E7C046BC
:103310000000002014030020012210B5FF24134BED
:10332000002160331A70124B1C711C00FF3459804D
:103330001981A17219009A7258310978002905D0B3
:10334000197ED972597E59735A331A70002807D0E2
:103350000420012103F052FCFA20800003F028FD34
:103360000021032003F04AFC10BDC0467C2500204C
:1033700000000020F0B5A24C95B012ABE17B5A1CC6
:10338000012003F0D5FC12AB09900790E17BDA1C19
:10339000032003F0CDFC12AB0A909A1CE17B0700DE
:1033A000022003F0C5FC0B900090E17B12AA0020E4
:1033B00003F0BEFC0C900890E17B13AA042003F0FC
:1033C000B7FC12AB9A1D00210D900190062003F06E
:1033D000AFFC12AB5A1D00210590052003F0A8FC9C
:1033E00012AB06909879FEF72FF88621C905FDF7F4
:1033F0005DFE844D6969FDF733FDFEF705F812ABFC
:1034000044B25879FEF720F88621C905FDF74EFE33
:10341000A969FDF725FDFDF7F7FF2A7F43B2002AD2
:1034200001D0644264B26A7F002A01D05B425BB281
:1034300012AA52780E9212AA5578D2780F9212AA36
:10344000D6789278109212AA9278029212AA1278E2
:10345000119212AA1278039212AA1179694A049160
:10346000107C013806280DD8654AFCF755FE041774
:103470001E27303842000E9A0998A518059A104365
:10348000C2B207925F4A507C0138062841D85C4A94
:10349000FCF742FE387F858F99A3AD000F9A0A9FF3
:1034A000A618059A1743FFB2ECE7109A0B98A218DA
:1034B0000292059A1043C2B20092E3E7119A0C9867
:1034C000A2180392059A1043C2B20892DAE7621872
:1034D0000D980492059A1043C2B20192D2E7402C93
:1034E00000DC38E1117D0029CCD101315174117516
:1034F000C8E7402C00DC2EE1117D0029C2D101314A
:103500001174F4E707985D19069B2DB21843C3B2F6
:103510000793281C002D00DA002003B2FF2B00DDEA
:10352000FF2000B2331C002E00DA00231E1C1BB249
:10353000FF2B00DDFF266B46029A1B8936B2002A5C
:1035400000DA00231AB2FF2A00DDFF231BB2029328
:103550006B469C89039B002B00DA002423B2FF2BCF
:1035600000DDFF246B461D8A049B24B2002B00DA89
:1035700000252BB2FF2B00DDFF25079B2DB2002B72
:1035800042D11F4B9B7C002B3ED1002F5AD1009B78
:10359000D8E09E19069B36B21F43FFB2B9E7029AE4
:1035A00000989B181BB20293069B1843C3B200936A
:1035B000AFE7039A08989B181BB20393069B184326
:1035C000C3B20893A5E7049A01989B181BB2049311
:1035D000069B1843C3B201939BE7402B00DCB8E085
:1035E000537D002B95D101335374537591E7402BD4
:1035F00000DCAEE0537D002B8BD101331374F4E774
:1036000000000020542500200F21FCF72DFE544B14
:1036100000B2DA7A89239B005343524A9B18102246
:10362000197C8C460121604500DC0021013AD2B2B0
:1036300019700133002AF3D1002F03D1484B9B7C32
:10364000002BA4D030000F21FCF70EFE444B0126C6
:10365000DA7A89239B005343424A60339B18102235
:1036600000B21F7C311CB84200DC0021013AD2B20A
:1036700019700133002AF4D1009B002B60D00F2178
:103680000298FCF7F1FD364B0126DA7A89239B007C
:103690005343344AC0339B18102200B21F7C311CA4
:1036A000B84200DC0021013AD2B219700133002A7D
:1036B000F4D1089B2A4E002B02D1F37C002B4CD076
:1036C0000F212000FCF7D0FD8923F27A9B005343A1
:1036D000244A4133FF339B180127102200B2197886
:1036E0001C008C46203C391C604500DC0021013A5E
:1036F000D2B221700133002AF1D1019B002B24D0DA
:1037000028000F21FCF7B0FD8923F27A9B00534378
:10371000144A9133FF339B180125102200B21C007C
:103720001F78203C291CB84200DC0021013AD2B2AB
:1037300021700133002AF2D10023738215B0F0BD4D
:10374000074B9B7C002B9AD1B3E7F37C002BD7D19E
:10375000F2E7002349E70021C9E6019BF6E7C046EE
:10376000000000201403002010B50400592003F0CD
:10377000B5FB002804D0034B1A68034B5A601C7039
:1037800010BDC046803A0020080300200023F0B599
:1037900001248BB0009302930193009803F0B6FBD1
:1037A000642802D9009B01940293009B0133DBB291
:1037B0000093102BF1D10027FBB2581E03930A2867
:1037C00007D8FCF7A9FC60666C72787E848A9096B4
:1037D0009C00512003F082FB0600512003F096FB71
:1037E0008F4D019BEA7A8F4C002B00D18DE0002E8B
:1037F00000D172E289239B0053430299E3185B18BE
:10380000190001203131FF316133FF330870F9B203
:1038100019702B00011C5B331970814BFB331B7833
:10382000002B00D1A9E0804B7E49D85D892353430A
:10383000DB1974339B00002800D1A8E0C918FA23D3
:103840001B024B60892189005143764BF8B259180D
:10385000C131FF310978814207D189214A43D21908
:10386000743292009A18714B536001370C2FA3D118
:103870000027FBB2581E0393032800D98AE0FCF707
:103880004BFCB7BDC3C9522003F028FB06005220F1
:10389000A4E7502003F022FB060050209EE75320AF
:1038A00003F01CFB0600532098E74F2003F016FBA3
:1038B00006004F2092E74E2003F010FB06004E203A
:1038C0008CE7542003F00AFB0600542086E74D20C5
:1038D00003F004FB06004D2080E7552003F0FEFABC
:1038E000060055207AE74C2003F0F8FA06004C2039
:1038F00074E7562003F0F2FA060056206EE74B20DC
:1039000003F0ECFA06004B2068E7FA239B0098428C
:1039100018D9EB7B9C46002B14D189239B00534381
:1039200040496646CB181800C130FF30017859185D
:10393000C331FF31DB190E70C333F9B20170FF33AD
:10394000012169E7002E00D167E7892189005143F1
:10395000344BF8B25B181900C131FF31097881424C
:1039600000D15AE7E97B002900D056E70120DB1996
:10397000C333FF33197841404EE789239B005343FB
:103980002849CB18DB19C333FF3318784EE7CB181F
:10399000586057E7462003F0A1FA0600462003F0DE
:1039A000B5FA1F49019ACB7A002A41D0002E00D1E6
:1039B00099E18920800058431A4A5B311218029815
:1039C0001218160001208136FF36B1323070FF32F6
:1039D000FEB216700870892189005943114A5218A5
:1039E000C232FF321278F9B28A4200D05FE13EE083
:1039F000472003F073FA06004720D0E7482003F081
:103A00006DFA06004820CAE7492003F067FA06006D
:103A10004920C4E74A2003F061FA06004A20BEE7C5
:103A20000000002014030020FD00002064C8C8002E
:103A3000FA229200904200D81EE1CA7B9446002AE6
:103A400000D019E1892292005A43AA4966468A1891
:103A50001000C230FF3001785118CF31FF310E70A5
:103A6000F9B201700121D219CF32FF3211708922CF
:103A70005A43D2199F49803292008A189E49516058
:103A80000137052F00D0F4E68926B6007343E3180A
:103A9000D533FF331968512003F058FCEB7A5220DC
:103AA0007343E318D933FF33196803F04FFCEB7A03
:103AB00050207343E318DD33FF33196803F046FCED
:103AC000EB7A53207343E318E133FF33196803F0B3
:103AD0003DFCEB7A4F207343E318E533FF3319685D
:103AE00003F034FCEB7A4E207343E318E933FF33E1
:103AF000196803F02BFCEB7A54207343E318ED3381
:103B0000FF33196803F022FCEB7A4D207343E3186E
:103B1000F133FF33196803F019FCEB7A5520734336
:103B2000E318F533FF33196803F010FCEB7A4C20EF
:103B30007343E318F933FF33196803F007FCEB7A9A
:103B400056207343E318FD33FF33196803F0FEFB7F
:103B50008022EB7A92007343E3189B1819684B207C
:103B600003F0F4FB8122EB7A92007343E3189B1875
:103B70001968462003F0EAFB8222EB7A9200734335
:103B8000E3189B181968472003F0E0FB8322EB7AC7
:103B900092007343E3189B181968482003F0D6FB82
:103BA0008422EB7A92007343E3189B18196849202A
:103BB00003F0CCFB8522EB7A92007343E3189B1849
:103BC00019684A2003F0C2FBEB7A07A95E43002381
:103BD000A41922001F00C3320196FF32D05CDDB26F
:103BE000002802D0781CCD55C7B201330C2BF5D17B
:103BF00000231E00CF34FF3405AAE15CD8B20029AF
:103C000002D0711C9055CEB20133052BF5D1019C29
:103C1000384B5134FF34009DE4182300203B1B78BF
:103C2000002B09D139002078FCF71AFB0C2204ABD9
:103C3000C9B29B185B5C2374013DEDB20134002DC9
:103C4000EBD1019C2B4BA134FF34E41805AD2300CC
:103C5000203B1B78002B06D131002078FCF700FBBD
:103C6000C9B26B5C2374009B0134013BDBB200934F
:103C7000002BECD10BB0F0BD002E00D1ABE68922B9
:103C800092005A431B49F8B28A181100C231FF3121
:103C90000978814200D1EAE61849C97B002906D19A
:103CA000D219CF32FF321078013141401170892290
:103CB00092005A430F498A18D219CF32FF32107836
:103CC00089225A43D219803292008A18002802D0E1
:103CD000FA210902D3E65060D2E6FA239B0098420B
:103CE00000D916E699E5FA229200904200D9A4E69E
:103CF00071E6C0461403002064C8C800000000201C
:103D0000F7B589270026BF00F3B2F0B2019303F0A4
:103D1000E5F8784C002803D0230000225B331A70AA
:103D2000F0B203F0E7F8744D002813D0432003F0FD
:103D3000EDF800280ED123005B331B78002B09D14E
:103D4000E37B002B06D10122E37A7B43EB18995DDC
:103D50004A409A551F20F3B2C01AC0B203F0BEF811
:103D600000280BD0E37B002B08D10122E37A7B43B0
:103D7000EB189B19603319784A401A70F0B2203062
:103D8000C0B203F0ABF800280BD0E37B002B08D1C6
:103D90000122E37A7B43EB189B19C03319784A4020
:103DA0001A703A00E37A5A43AA18915D002901D0AB
:103DB000FA21090289225A43921908329200A95025
:103DC0003A005A43AA18921960321178002901D09A
:103DD000FA21090289225A43921920329200A950ED
:103DE0003A005A43AA189219C0321278002A01D018
:103DF000FA22120289214B439B1938339B0001366A
:103E0000EA50102E80D100260423E356F7B29E42DA
:103E10004CD1A37B002B49D038008927374903F0C8
:103E200095FAE37ABF007B43EB18995D002900D037
:103E30000121062002F0E2FEE37A5F43EF19BF1989
:103E400060373978002900D001218927072002F046
:103E5000D5FEE37ABF007B43EB189B19C03319787A
:103E6000002900D00121082002F0C8FEE37A5F4358
:103E7000EF19BF192137FF373978002900D0012108
:103E8000092002F0BBFE8923E27A9B005343EB1822
:103E90009B197133FF331978002900D001210A20C2
:103EA00002F0ACFE0136102EAED1F7BD8922E37AC6
:103EB000380053439B1908339B00E95803F046FA36
:103EC00089221F20E37AC01B53439B1920339B0098
:103ED000E958C0B203F03AFA89223800E37A203078
:103EE00053439B1938339B00E958C0B203F02EFAB4
:103EF000D8E7C046000000201403002064C8C800B2
:103F0000F0B5374C374BA54401930023432500936C
:103F10006B4628001C7802F0E1FF002806D0324BE7
:103F20000022190058335C310A701A70280002F020
:103F3000EDFF002838D028002C4903F007FA2000B4
:103F400002F0E4FF002814D02849200003F0FEF915
:103F50008923254A9B00D17A4B432249CB188621DD
:103F600089005B181C70130001215B335C321970EF
:103F700011703F231E1BF6B2300002F0AFFF002885
:103F800012D0194F59373B783F2B0DD830001749C5
:103F900003F0DCF93B785A1C3A70134AD3181C76AC
:103FA000130001225C331A70280002F0A3FF0028DE
:103FB00025D00D4B1A0059321278012A06D9180063
:103FC0000121583001701973197E597319005C3141
:103FD000097800290CD15833198000210CE0C04623
:103FE000CCFDFFFF140300200000002064C8C800BF
:103FF000002AF2D0FA210902280003F0A7F9412093
:1040000002F084FF3F231F1BFFB2002800D15BE1B9
:10401000380002F063FF002813D0C04B9A7D002ABD
:1040200000D14CE189220024D97D920051439C7536
:10403000BB4B0198591807F041F92100412003F0CA
:1040400085F9380002F056FF002803D00022B34B58
:10405000F8331A70892292009446009B0133009332
:10406000019B63440193009B102B00D050E7C027B5
:104070000026AC4DBF00AC4B89211A683B0073434E
:1040800092B29202D21AA94B8900D21803A802F068
:10409000B9FE2800B138102203A9FF3807F000F953
:1040A0000124002800D0ECE02800A138102207A944
:1040B000FF3807F0F5F8002800D0E2E0280091383A
:1040C00040220BA9FF3807F0EBF8002800D0D8E019
:1040D0002800513810221BA9FF3807F0E1F800280A
:1040E00000D0CEE02800413810221FA9FF3807F089
:1040F000D7F8002800D0C4E028003138402223A996
:10410000FF3807F0CDF8002800D0BAE028001022D0
:1041100033A9F03807F0C4F8002800D0B1E0280037
:10412000102237A9E03807F0BBF8002800D0A8E03B
:10413000280040223BA9D03807F0B2F8002800D070
:104140009FE0280010224BA9903807F0A9F800281A
:1041500000D096E0280010224FA9803807F0A0F880
:10416000002800D08DE02800102253A9703807F0F5
:1041700097F8002800D084E0280010225BA950386E
:1041800007F08EF800287CD1280010225FA9403863
:1041900007F086F8002874D12800102263A930386F
:1041A00007F07EF800286CD12800102267A920387B
:1041B00007F076F8002864D1102228006FA907F0D4
:1041C0006FF800285DD1E02303A95B002A7CCB5C5B
:1041D0009A4256D1C22303A9FF336A7CCB5C9A4230
:1041E0004FD1E3212800490002AB0C22C91812303C
:1041F00007F056F8002844D1E9212800490002AB15
:104200000522C9181E3007F04BF8002839D12800C4
:10421000302278A9243007F043F8002831D1280053
:10422000142284A9543007F03BF8002829D12B0030
:1042300068331A78862303A99B00CB5C9A4220D16D
:1042400087239B00C958E86EFCF744F9002818D072
:104250002800102257A9603807F022F8002810D152
:10426000280010226BA9103807F01AF8002808D18E
:10427000882303AA9B00D4582B6F1C1B631E9C41F0
:10428000E4B23F20254BF2B2D97A801AC0B29142F3
:1042900000D095E0264903F059F8211E01D0FA21FB
:1042A0000902452003F052F8892301369B00ED18DE
:1042B000102E00D0DFE68D239B009D44F0BD01222F
:1042C0001B499A75DC75B9E6452002F01FFE0028EF
:1042D00030D0380002F002FE002800D1B1E60F4EC7
:1042E000F37AA34200D0ACE60F4B00991A6803A8FA
:1042F00092B29302C02292004A4389219A1A0B4B30
:104300008900D21802F07EFD89220198920003A94B
:1043100006F0D4FF0123FA36337092E60000002045
:1043200014030020C40400207C00F81F80FCFF0759
:1043300064C8C800380002F0E9FDFA23DB009842A7
:1043400022D9294B1E00F8363278002A1CD1DB7A9C
:10435000A34200D075E62821244A254802F05AFDE0
:10436000244B00991A68019892B29302C0229200DD
:104370004A4389219A1A204B8900D21802F04AFD3B
:104380000223FF3333805CE6380002F0A7FD0028EB
:1043900000D156E60123144E002133733300583305
:1043A0001980330028005D331970747302F0CEFF5A
:1043B000B37B002B00D044E6727B3373F27240E68D
:1043C000197B002909D0597B914206D11B79002124
:1043D000DB0700D566E7094964E7211E00D161E7E4
:1043E000FA2109025EE7C04600000020000008082C
:1043F000542500207C00F81F80FCFF0764C8C8001B
:10440000F0B589B01022C54904A806F057FF57201F
:1044100002F064FDC24C002802D0E37B002B03D0E5
:10442000237C002B00D16DE121000123BD4A5D31C9
:10443000206EA3740B7013681B1A632B01D803231F
:104440000B7013682366237C002B03D15720B649D9
:1044500002F07CFF8926E37AB6007343B34AD3188F
:104460001900220010316432A1C9A1C2096811608B
:104470001900220070317432A1C9A1C20968D03379
:1044800011602200843223CB23C200251B681360F5
:1044900002F0AEFC0195039501352900FBF7E0FE23
:1044A000019B0A009E4F994208D0F97A9F4B7143B5
:1044B0005B1899180198097C1B181974039904ABAF
:1044C000CB5C0293F97A994B71435918029B891876
:1044D0000B7402F08DFC2900FBF7C2FE039B0A005F
:1044E00099420AD0FB7A91497343CB1899180198E5
:1044F000703109781B1870331970894F8B4BF97A1A
:10450000714359188918029B70310B7002F070FCCE
:104510002900FBF7A5FE039B99420AD0FB7A834A48
:104520007343D3185A180198D03212781B18D0331D
:104530001A70FB7A7D4A7343D3185918029BD03105
:104540000B70102DA4D1582002F0C8FC744D002827
:1045500002D0EB7B002B03D06B7C002B00D1D7E08B
:10456000012329006F4AEB745D31DB18286E0B7054
:1045700013681B1A632B01D803230B7013682B6677
:104580006B7C002B03D15820674902F0DFFE8922A3
:10459000E37A92005343654A2100D3181A0041324E
:1045A0009431FF32C1CAC1C112680A601A002100E9
:1045B0009132C431FF32C1CAC1C112680A601A0007
:1045C00021006132B431FF32C1CAC1C112680A6030
:1045D0001A002100B132E431FF32C1CAC1C11268F0
:1045E0000A601A0021005132A431FF32C1CAC1C190
:1045F0001268D4340A602200A133FF3313CB13C2F4
:1046000000241B68136027002600013402F0F0FB31
:104610002100FBF725FE0A00B9420ED0404BD97AA3
:1046200089239B005943414B5B1899184131FF3155
:10463000DB1909784133FF33197004ABF35C019344
:10464000374BD97A89239B005943384B591889181D
:10465000019B4131FF310B7002F0CAFB2100FBF7D7
:10466000FFFD0A00B1420ED089212D4B8900DB7A73
:104670004B432E49CB1899189131FF31DB1909783A
:104680009133FF3319708921254B8900DB7A4B4325
:104690002649C9188918019B9131FF310B70102CE4
:1046A000B1D189270024BF0002F0A2FBEB7A1F4A98
:1046B0007B43D3181B195133FF33187002F098FB5A
:1046C000EE7A1A4B7E439B191B19A133FF33013439
:1046D0001870102CE8D13000144B3130FF3022001C
:1046E0000021181806F006FE3000104B8130FF3014
:1046F00022000021181806F0FDFD0022084B1A8246
:1047000009B0F0BDFA215720090202F01FFE1AE796
:10471000FA215820090202F019FEEEE7B8E200087B
:1047200000000020803A002064C8C8001403002064
:10473000094B0A4A30B55D6814684019A0420AD294
:10474000012905D118780400233C022C00D9987067
:10475000126819705A6030BD08030020803A0020AA
:10476000F0B585B002AB5C1D524B1B79237002ABD8
:104770009D1D504BDB7A2B7002ABDA1D4D4B9B7AA3
:1047800013704C4B5B7A002B03D029002000FEF7FE
:1047900001FD2B7889219C466246002789004A4307
:1047A000454BE7579A18D01906002136FF36367860
:1047B000002E00D175E06130FF3000786246514331
:1047C0005B18DF193A007132FF321278002A00D1EB
:1047D0006BE0B137FF373A780C2353431818FCF7D6
:1047E00033FE3649FCF762FC3549FCF771F9354F69
:1047F000396AFBF7CFFFFA218905FCF731FB324913
:10480000FBF7C8FF3149FCF72BFBFBF7DFFE294E16
:1048100083B20193FF36B17A052002F0EFF900234D
:10482000B3728923002229789B004B432249A25668
:10483000CB189B18C0331B78002B01D00123B37217
:10484000019802F047FD8923002229789B004B4301
:104850001949A256CB189B5C002B03D001210800FC
:1048600002F0CCF98923002229789B004B4312499E
:10487000A256CC18A41860342378002B03D0012151
:10488000022002F0BBF90B4BD888FCF7DDFDF9687C
:10489000FCF7E6FAFBF79AFE80B202F079FA05B06F
:1048A000F0BDC132FF32107888E7C233FF331A7887
:1048B00092E7C04600000020140300200000C04121
:1048C00000004041542500200000A03FCDCCCC4644
:1048D00010B5074BFF339C7A002C07D12100012033
:1048E00002F08CF92100022002F088F910BDC046C8
:1048F0000000002010B50021042002F07FF910BD57
:10490000012170B54B4C237A5940217227D10320E5
:1049100002F074F9484B1B78002B04D1E088400862
:1049200002F056FA1AE08923E27A9B005A43434B7D
:10493000FE219B18872292009B181E688905301C57
:10494000FBF7D8FD002809D1E578301C0135EDB220
:10495000E570FBF73BFEC0B2A842DFD870BDA37B79
:10496000002BFBD0364A37493748FEF713FC0028A6
:104970001AD000212300217358331B788B4213D0A7
:10498000220020005A32137859300133DBB2137001
:104990000078984200D8117023005A331B78E3182E
:1049A0001B7E6373012323738923E27A9B005A439E
:1049B000224B214D9B18872292009B181E682B7852
:1049C000002B2BD02088FCF73FFD311CFCF780F832
:1049D000FBF7FCFD80B2E0800121032002F00EF91C
:1049E000637A002B15D1FFF7BBFEFC2168688905AF
:1049F000FCF75CFBE688051C3000FCF725FD011C7C
:104A0000281CFCF72DFAFCF7FFFC301880B202F0EE
:104A1000AFF90123627A534063727FE7A9680B48BC
:104A2000FCF756F8311CFCF753F8FBF7CFFD0338C1
:104A3000D0E7C046000000205425002014030020C9
:104A40000A0000200B00002004000020007C124817
:104A5000012010B5FEF760FC054B9B7B002B06D0B8
:104A6000044B1B78002B02D1012002F0B1F910BDDC
:104A7000000000205425002001221D4B70B5613339
:104A80001A701C4B984201D81B4B18801B4B1B788B
:104A9000002B25D08923184C9B00E27AFE215A4333
:104AA000174B89059B18872292009B181D68281CAC
:104AB000FBF716FD002816D0FE20291C8005FCF708
:104AC00007F8FBF783FDA378C5B2002B02D10120C4
:104AD00002F07EF9A3780133DBB2AB4201D2A370BE
:104AE00070BD0023FBE7E070012002F071F9F7E7E9
:104AF0007C250020D11E000000000020542500204D
:104B000014030020F0B5DC4CA54402F05BFC00244B
:104B100002F0A2FC02F0D6FB02F0E8F802F0EEF898
:104B2000012003F0D7FE0022200001341100E4B27E
:104B300002F0FEF8072CF1D10021012002F05EF80E
:104B40000021022002F05AF80021032002F056F85A
:104B50000021042002F052F8C84CC94A2821200044
:104B600002F050F9636AC74A934219D021AB190089
:104B7000C54A103261CA61C161CA61C161CA61C1FD
:104B800012680A60220061CB61C261CB61C261CB55
:104B900061C20B68200013602821B94A02F03AF97B
:104BA00000221AAB9A701AAB9D1C2B780F2B3AD9A6
:104BB0000022B64B4020DA725D331A7002F08EF993
:104BC0000127002800D1C9E32623B14F3B7002F032
:104BD00083F80028FBD002F091F802F09DFBB8604A
:104BE000387826381B2800D9C9E2FBF7A9FA9F00BC
:104BF000A700B300BD00C500CB00E600FF00250103
:104C000085019301AD01BB01D001DE01F301010279
:104C100016021C02330249025E02610267027E0232
:104C20009402A902AF02C0249A4F287829783B68E1
:104C30008926A40061439AB2974B9202D218521A65
:104C40007F21B6007043954B8A43C018310002F0B3
:104C5000D9F82B78914A7343D318882292009B1875
:104C60001B68884A93425AD021AC320000212000B0
:104C700006F040FBC22302220221FF33E254C13B73
:104C8000C132FF3BFF32A3540232A354FF31023240
:104C9000A152CA22FF32A354CC22FF32A354CE2207
:104CA000FF32A3540332A3548623C23A9B00FF3A37
:104CB000E254FE22287804339205E2507043714A90
:104CC0000433E250754A21001018320006F0F6FA5B
:104CD0000222C0246D4BFF321A822A78A400DA72B5
:104CE000FFF78EFBFEF746FBFEF750FDFFF708F8D7
:104CF0006B496C4802F010FC02F0ACFD28783B6870
:104D000029789BB261439A02634B7043D218521ABE
:104D10007F21624B8A43C018310002F07BF81AAB46
:104D20009B781AAA0133DBB293703CE75E495F4877
:104D300002F0F2FB2721FA2080003BE05C495D484D
:104D400002F0EAFB5C482821FFF7F2FC2820FEF77E
:104D50000BFD06E059485A4902F0DEFB2920FEF718
:104D6000A9FA02F077FD32E75649544802F0D4FB25
:104D70002A20FEF78DFAF4E75348544902F0CCFBA1
:104D80002B20E4E700252C005149524802F0C4FBD7
:104D9000514E32002000002101F0CAFF3378013467
:104DA000ED18E4B2ADB20136052CF2D12C21002D64
:104DB000D7D10120FFF7BCFCD3E700252C004449E4
:104DC000464802F0A9FB444E32002000002101F0C9
:104DD000AFFF33780134ED18E4B2ADB20136052CE3
:104DE000F2D13F4B2D219D42BBD1E2E73D493E48E8
:104DF00002F092FB002420003C4902F0A7FA2000B8
:104E00000134E4B202F06AF8592CF4D101210620F1
:104E100001F0F4FE0121072001F0F0FE012108203D
:104E200001F0ECFE0121092001F0E8FE0A20012139
:104E300001F0E4FE2E208AE700252C002C492D48A5
:104E400002F06AFB244E200002F048F8002805D04A
:104E50000021200002F07AFA0123F371F379013482
:104E6000ED18E4B2ADB20136592CECD1592D00D079
:104E700077E72F219DE7C04654FDFFFF5425002012
:104E800000000808DEC0EDFEB8E2000800000020C7
:104E9000080300207C00F81FFFFCFF07140300201C
:104EA00054E400085BE4000866E400086BE40008D2
:104EB00070E4000878E40008102700007EE4000891
:104EC00088E4000887E40008D8E400088BE40008C0
:104ED00093E400089BE400087C250020A4E400087B
:104EE000FB040000AEE40008B8E400085555550086
:104EF000C1E40008C9E40008A249A34802F00CFB81
:104F00000120002101F07AFE0022A04B3020613305
:104F10001A701CE70121080001F070FE0A2003F05E
:104F2000D9FC9A4B61331B78002B05D098499948DE
:104F300002F0F2FA312104E09749984802F0ECFAC5
:104F40002F21FA20C00035E78E49954802F0E4FA97
:104F50000220002101F052FE00228C4B32206133EE
:104F60001A70F4E60121022001F048FE0A2003F045
:104F7000B1FC864B61331B78002B05D084498948EE
:104F800002F0CAFA3321DCE783498448D0E77D493F
:104F9000854802F0C1FA0320002101F02FFE002213
:104FA0007A4B342061331A70D1E60121032001F0DD
:104FB00025FE0A2003F08EFC744B61331B78002B16
:104FC00005D07349794802F0A7FA3521B9E772494B
:104FD0007248D5E76B49764802F09EFA042000211A
:104FE00001F00CFE0022694B362060331A70AEE6E9
:104FF0000121042001F002FE0A2003F06BFC634B48
:1050000060331B78002B05D061496A4802F084FAAE
:10501000372196E760496148D5E76748594902F06A
:105020007BFA382093E6654802F054F90A2003F031
:1050300051FC564C00210620A21D01F079FEA379F7
:10504000F52B05D952495E4802F066FA392172E61D
:105050003B2176E75B4802F03DF90A2003F03AFC79
:105060004A4C00210620A21D01F062FEA3797C3B80
:10507000082BEDD84649544802F04EFA3A215AE638
:10508000002002F027F90A2003F024FC3F4C002105
:105090000620A21D01F04CFEA379092BD8D83C496B
:1050A0004A4802F039FA3C2145E649494948ADE70A
:1050B0004948344902F030FA3D2048E63F4802F0C2
:1050C00009F90A2003F006FC304C00210520621D7E
:1050D00001F02EFE6379F52B05D92D493F4802F0EA
:1050E0001BFA3E2127E640212BE7364802F0F2F872
:1050F0000A2003F0EFFB254C00210520621D01F082
:1051000017FE63797C3B082BEDD82149344802F027
:1051100003FA3F210FE6002002F0DCF80A2003F03A
:10512000D9FB1A4C00210520621D01F001FE6379B4
:10513000092BD8D816492B4802F0EEF94121FAE59F
:105140002349294802F0E8F93C21FAE6002106202B
:1051500001F054FD0021072001F050FD002108203E
:1051600001F04CFD0021092001F048FD00210A203A
:1051700001F044FD1D491E4802F0CEF9F1E51D493C
:105180001D48F9E7D3E40008DEE400087C25002090
:10519000EAE40008EFE40008F4E40008FDE4000895
:1051A00001E500080CE5000813E500081EE500080D
:1051B00024E500082FE5000835E50008FFFF0000A2
:1051C0003FE50008FF7F000048E5000850E50008C3
:1051D00058E5000861E5000869E5000873E5000886
:1051E0007CE5000884E500088CE5000894E50008EB
:1051F0009DE50008A3E50008A9E50008002B00D103
:1052000053E1FA210902422002F0A0F8A17B002913
:1052100001D0FA210902402002F098F8A57B002D68
:1052200013D12900062001F0E9FC2900072001F034
:10523000E5FC2900082001F0E1FC2900092001F02B
:10524000DDFC29000A2001F0D9FCE17B002901D016
:10525000FA210902442002F079F801F03DFD00280E
:105260007CD001F04BFD00252326280001F04EFEE6
:10527000FA280DD923005B331F70BA4B1A68BA4B5A
:105280005A601A78232A03D05A701E701AABDD7048
:105290000135EDB2102DE8D12300F9331A78B24D63
:1052A000002A0AD02A78242A07D06A7024222A7079
:1052B000AC4A12686A6000221A702300FA331A7826
:1052C000002A0AD02A78252A07D06A7025222A7057
:1052D000A44A12686A6000221A7002F01DF8A349FD
:1052E000A8602422383121A805F0E8FF2878252875
:1052F00001D901F016FBFAF723FF2600DA00EA00D5
:10530000F8000501280159019001C201CE014903AD
:105310005503350742077C078907C4070B089A0322
:10532000A603BF03C008CD080E091B09560963096F
:1053300080098D092F0A3C0A770A840AA10AAB0A60
:10534000E10A090B120B8A498A4802F0E5F8FA20B3
:105350000321C000FFF7ECF902F07CFAFEF7D0FD64
:10536000FEF708F8FEF7CCFCFEF710FAFFF748F856
:10537000402001F0B3FD804C00280FD03B00A07B03
:105380004340A373FDF7C8FFA37B002B06D07B4BE4
:105390001B78002B02D1380001F01AFD442001F0E7
:1053A0009DFD002802D0E37B7B40E373422001F0A7
:1053B00095FD23005D331B78002800D11EE7009384
:1053C0000223009D9D430195012D1ED18923E27A80
:1053D0009B0053436A4AD3181800220010306432ED
:1053E00062CA62C01268D033026022005430743244
:1053F00062CA62C0126802602200843223CA23C3D8
:10540000180013680360019BA374009902390129F5
:1054100047D88925E07AAD004543594B22005B19F6
:10542000190041310095FF31943261CA61C112689F
:10543000A1330A6022004431C43261CA61C11268DA
:105440003C39CA632200B43261CA61C11268FF33B9
:105450000A6022004431E43261CA61C112686C39C9
:10546000CA662200A43261CA61C112680A602200C1
:10547000D43223CA23C31900136810220B6000988A
:105480003F4B3130FF300021C01805F033FF00984A
:105490003B4B8130FF3010220021C01805F02AFF5D
:1054A000E774230000225D331A700021ABE6304917
:1054B000304802F031F8A878FDF7EAFEA878FEF748
:1054C00053F9A878FDF7F6FE02212E4842E72E4850
:1054D000010002F021F8A878FDF7DAFEA878FEF7BF
:1054E00043F9A878FDF7E6FE36E72849284802F098
:1054F00013F80520FDF7CCFE0420FEF735F939003E
:10550000244827E70420FDF7C3FE1C4D002816D0D1
:105510000023A3732B787B402B702B781E49002B24
:1055200000D11E491EA806F06FFC1EA9184801F004
:10553000F3FF0320FEF718F9032119480AE70420B6
:10554000FDF7B8FE0028E3D1E7E71649164801F059
:10555000E3FF0320FDF7AEFE0820FDF799FE0620CD
:10556000CBE7C046803A002008030020B8E20008DC
:10557000B1E50008B3E50008000000205425002034
:1055800014030020C02709007EE80008B5E50008E4
:10559000C5E5000830750000D0E50008D9E5000831
:1055A00010270000E2E50008F7E50008E44CA068D9
:1055B000FDF77EFD02000B001EA8E24906F004FC88
:1055C000E1481EA901F0A8FF0620FDF761FE0028B2
:1055D0000CD0A568DD49281CFAF78CFF002805D0FF
:1055E000FE21281C8905FBF7D5F8A0600620FDF7F1
:1055F00061FE00280CD0A568D549281CFAF78EFF5B
:10560000002805D0FE21281C8905FBF74FFDA0606E
:105610000720FEF7A9F805218FE7C94CA068FDF720
:1056200047FD02000B001EA8C64906F0CDFBC94885
:105630001EA901F071FF0720FDF72AFE00280BD0FC
:10564000A568C549281CFAF74BFF002804D0C349B8
:10565000281CFBF79FF8A0600720FDF72BFE002811
:105660000BD0A568BE49281CFAF74EFF002804D0CD
:10567000BA49281CFBF71AFDA0600520C9E7B94903
:10568000B94801F049FF0520FDF714FE0A20FDF797
:10569000FFFD092031E789268722F821E37AB60049
:1056A0007343B24D9200EB189B1818688905FAF7FE
:1056B00011FF002800D1DFE0AB48AD4901F02CFF1D
:1056C0000920FDF7E5FD002800D1D5E0E37A5E432F
:1056D0008723AE199B00F618FA239B053360A24876
:1056E000A44901F019FF0920FDF7E4FD00280AD0C4
:1056F0008923E27A9B0053438722EB1892009B1880
:10570000F82292051A600920FDF7C2FD002800D199
:10571000C2E08923E27A9B0053438722EB18920070
:105720009B18FC2292051A608F48934901F0F4FE01
:105730000920FDF7BFFD00280AD08923E27A9B00EB
:1057400053438722EB1892009B18FA2292051A60A5
:105750000920FDF79DFD002800D1ADE08923E27A04
:105760009B0053438722EB1892009B18FE22920560
:105770001A607D48814901F0CFFE0920FDF79AFDAE
:1057800000280AD08923E27A9B0053438722EB1832
:1057900092009B18FC2292051A600920FDF778FD03
:1057A000002800D198E08923E27A9B0053438722A6
:1057B000EB1892009B188022D2051A606A48704943
:1057C00001F0AAFE0920FDF775FD00280AD0892303
:1057D000E27A9B0053438722EB1892009B18FE222B
:1057E00092051A600920FDF753FD002800D183E0DF
:1057F0008923E27A9B0053438722EB1892009B187F
:105800008122D2051A6058485E4901F085FE0920C0
:10581000FDF750FD00280AD08923E27A9B0053430C
:105820008722EB1892009B188022D2051A6009206B
:10583000FDF72EFD00286FD08923E27A9B005343A9
:105840008722EB1892009B188222D2051A604648E4
:105850004D4901F061FE0920FDF72CFD00286AD0BA
:105860008923E27A9B005343ED1887239B00ED18B0
:105870008123DB052B605EE08923E27A9B005343A2
:105880008722FA21EB1892009B1818688905FAF70D
:1058900021FE002800D022E78923E27A9B005343AF
:1058A0008722FC21EB1892009B1818688905FAF7EB
:1058B00011FE002800D037E78923E27A9B0053438A
:1058C0008722FE21EB1892009B1818688905FAF7C9
:1058D00001FE002800D04CE78923E27A9B00534365
:1058E00087228021EB1892009B181868C905FAF7E7
:1058F000F1FD002800D061E78923E27A9B00534341
:1059000087228121EB1892009B181868C905FAF7C5
:10591000E1FD002800D076E78923E27A9B0053431B
:1059200087228221EB1892009B181868C905FAF7A4
:10593000D1FD00288BD10820FDF716FF0821FCE5DA
:1059400054250020F2E50008FBE5000800809F4395
:105950000000A84102E600080000A043CDCCCC3DE9
:105960000000A04107E6000817E600081403002025
:105970001FE6000822E6000825E600083DE50008CD
:1059800028E600082BE600082EE6000831493248D8
:1059900001F0C2FD0820FDF78DFC1220FDF778FC18
:1059A0000B20AAE52D4C6378002B22D12A482C49E4
:1059B00001F0B2FD0B20FDF76BFC002800D06770F2
:1059C0000B20FDF777FC002813D0022363702248D8
:1059D000244901F0A1FD0B20FDF75AFC002801D05D
:1059E000002363700B20FDF765FC002816D067705C
:1059F00014E06378012B16D117481B4901F08CFD88
:105A00000B20FDF745FC002801D0022363700B201A
:105A1000FDF750FC002806D0002363700A20FDF734
:105A2000A3FE0A2189E56378022BF7D1CFE70F495E
:105A30000F4801F071FD0A20FDF73CFC0C20FDF73A
:105A400027FC132059E50B49094801F065FD142195
:105A500038007FE431E6000841E6000854250020C4
:105A60004BE600085BE6000853E6000865E6000820
:105A700075E600087BE600081420FDF709FC002805
:105A800000D19DE1FD49FE4801F046FDFD4B892412
:105A90001A0073321278A40000921A00833212782E
:105AA000F94E01921A009332127802921A00A33230
:105AB000127803921A00C332127804921A00D33279
:105AC000127805921A00F33212780692DB7A0F22CE
:105AD0005C433519EB7B0793EB7F0893EB6D0993E0
